:040000000000038079
:040001000100028078
:040002000001038076
:040003000203028072
:04000400040502806D
:040005000002038072
:04000600014802802B
:040007003C0902802E
:040008000001028071
:0400090002F7028078
:04000A00000303806C
:04000B00040002806B
:04000C000304038066
:04000D000506028062
:04000E000504038062
:04000F00070802805C
:040010000005038064
:040011000900028060
:040012000106038060
:040013000100028066
:04001400020603805D
:040015000200028063
:04001600030603805A
:040017000300028060
:040018000406038057
:04001900040002805D
:04001A000506038054
:04001B00050002805A
:04001C000606038051
:04001D000600028057
:04001E00070603804E
:04001F000700028054
:04002000080603804B
:040021000800028051
:040022000007038050
:04002300090002804E
:04002400010703804D
:040025000102028052
:04002600020703804A
:04002700030402804C
:040028000307038047
:040029000506028046
:04002A000407038044
:04002B000708028040
:04002C000108038044
:04002D000900028044
:04002E000308038040
:04002F00000002804B
:04003000010903803F
:040031000100028048
:04003200030903803B
:040033000200028045
:04003400010A03803A
:040035000300028042
:04003600030A038036
:04003700040002803F
:04003800010B038035
:04003900050002803C
:04003A00030B038031
:04003B000600028039
:04003C00010C038030
:04003D000700028036
:04003E00030C03802C
:04003F000800028033
:04004000010D03802B
:040041000900028030
:04004200030D038027
:040043000000028037
:04004400010E038026
:040045000100028034
:04004600030E038022
:040047000200028031
:04004800010F038021
:04004900030002802E
:04004A00030F03801D
:04004B00040002802B
:04004C00001003801D
:04004D000506028022
:04004E00070802801D
:04004F000900028022
:040050000102028027
:040051000304028022
:04005200050602801D
:040053000708028018
:04005400090002801D
:040055000110038013
:040056000102028021
:040057000210038010
:04005800030402801B
:04005900031003800D
:04005A000506028015
:04005B00041003800A
:04005C00070802800F
:04005D000510038007
:04005E000900028013
:04005F000610038004
:040060000102028017
:040061000011038007
:040062000304028011
:04006300050602800C
:040064000708028007
:04006500090002800C
:040066000102028011
:04006700030402800C
:040068000506028007
:040069000708028002
:04006A0001110380FD
:04006B000900028006
:04006C0002110380FA
:04006D00010202800A
:04006E0003110380F7
:04006F000304028004
:0400700004110380F4
:0400710005060280FE
:0400720005110380F1
:0400730007080280F8
:0400740006110380EE
:0400750009000280FC
:040076000102028001
:0400770003040280FC
:0400780005060280F7
:0400790007000280FA
:04007A000000000082
:04007B000000000081
:04007C000000000080
:04007D00000000007F
:04007E00000000007E
:04007F00000000007D
:04008000000000007C
:04008100000000007B
:04008200000000007A
:040083000000000079
:040084000000000078
:040085000000000077
:040086000000000076
:040087000000000075
:040088000000000074
:040089000000000073
:04008A000000000072
:04008B000000000071
:04008C000000000070
:04008D00000000006F
:04008E00000000006E
:04008F00000000006D
:04009000000000006C
:04009100000000006B
:04009200000000006A
:040093000000000069
:040094000000000068
:040095000000000067
:040096000000000066
:040097000000000065
:040098000000000064
:040099000000000063
:04009A000000000062
:04009B000000000061
:04009C000000000060
:04009D00000000005F
:04009E00000000005E
:04009F00000000005D
:0400A000000000005C
:0400A100000000005B
:0400A200000000005A
:0400A3000000000059
:0400A4000000000058
:0400A5000000000057
:0400A6000000000056
:0400A7000000000055
:0400A8000000000054
:0400A9000000000053
:0400AA000000000052
:0400AB000000000051
:0400AC000000000050
:0400AD00000000004F
:0400AE00000000004E
:0400AF00000000004D
:0400B000000000004C
:0400B100000000004B
:0400B200000000004A
:0400B3000000000049
:0400B4000000000048
:0400B5000000000047
:0400B6000000000046
:0400B7000000000045
:0400B8000000000044
:0400B9000000000043
:0400BA000000000042
:0400BB000000000041
:0400BC000000000040
:0400BD00000000003F
:0400BE00000000003E
:0400BF00000000003D
:0400C000000000003C
:0400C100000000003B
:0400C200000000003A
:0400C3000000000039
:0400C4000000000038
:0400C5000000000037
:0400C6000000000036
:0400C7000000000035
:0400C8000000000034
:0400C9000000000033
:0400CA000000000032
:0400CB000000000031
:0400CC000000000030
:0400CD00000000002F
:0400CE00000000002E
:0400CF00000000002D
:0400D000000000002C
:0400D100000000002B
:0400D200000000002A
:0400D3000000000029
:0400D4000000000028
:0400D5000000000027
:0400D6000000000026
:0400D7000000000025
:0400D8000000000024
:0400D9000000000023
:0400DA000000000022
:0400DB000000000021
:0400DC000000000020
:0400DD00000000001F
:0400DE00000000001E
:0400DF00000000001D
:0400E000000000001C
:0400E100000000001B
:0400E200000000001A
:0400E3000000000019
:0400E4000000000018
:0400E5000000000017
:0400E6000000000016
:0400E7000000000015
:0400E8000000000014
:0400E9000000000013
:0400EA000000000012
:0400EB000000000011
:0400EC000000000010
:0400ED00000000000F
:0400EE00000000000E
:0400EF00000000000D
:0400F000000000000C
:0400F100000000000B
:0400F200000000000A
:0400F3000000000009
:0400F4000000000008
:0400F5000000000007
:0400F6000000000006
:0400F7000000000005
:0400F8000000000004
:0400F9000000000003
:0400FA000000000002
:0400FB000000000001
:0400FC000000000000
:0400FD0000000000FF
:0400FE0000000000FE
:0400FF0000000000FD
:00000001ff
